S012000062757A7A65725F315F332E737265634E
S113000045C000004BC0000049C0000047C00000CC
S113001045C0000043C0000041C000003FC00000D4
S11300203DC000003BC0000039C0000037C00000E4
S113003035C0000033C0000031C000002FC00000F4
S11300402DC000002BC0000029C0000027C0000004
S113005025C0000023C0000021C000001FC0000014
S11300601DC000001BC0000019C0000017C0000024
S113007015C0000013C0000011C000000FC0000034
S11300800DC000000BC0000009C0000011241FBEF9
S1130090CFEFD0E1DEBFCDBFC9D1BEC3B1CF2F9268
S11300A03F924F925F926F927F928F929F92AF9204
S11300B0BF92CF92DF92EF92FF920F931F93CF9351
S11300C0DF93CDB7DEB766970FB6F894DEBF0FBEE9
S11300D0CDBF9C013B0184EF91E0B90176D31B01B4
S11300E08C0180E090E09E8B8D8B81C180E188BB88
S11300F0B101032C000C880B990B50D269877A87C5
S11301008B879C8720E030E04AE755E4FBD26B0103
S11301107C0120E030E040E85FE3A6D1882314F1BD
S113012020E03FEF4FE757E4C701B601E7D21816C6
S1130130ACF420E030E040E251E469857A858B85B7
S11301409C85E0D2FDD106C080E991E00197F1F7EA
S11301506150710961157105B9F709C0C701B6018C
S1130160EFD102C061E070E0CB010197F1F7B80173
S1130170012E000C880B990B11D269837A838B832F
S11301809C832BEA3AEA4AEA50E4BCD24B015C0174
S113019020E030E040E850E469817A818B819C81E1
S11301A0B1D26D837E838F83988720E030E040E86E
S11301B05FE3C501B40158D188230CF46CC020E07E
S11301C03FEF4FE757E46D817E818F81988596D20A
S11301D018160CF049C020E030E04AE754E4698185
S11301E07A818B819C8144D1698B7A8B8B8B9C8B9C
S11301F020E030E04AE755E485D26D877E878F871B
S1130200988B20E030E040E85FE32ED1882334F17E
S113021020E03FEF4FE757E46D857E858F85988911
S11302206DD21816ACF420E030E040E251E4698964
S11302307A898B899C8966D283D106C080E991E052
S11302400197F1F76150710961157105B9F725C07E
S11302506D857E858F85988973D102C061E070E0D9
S1130260CB010197F1F719C020E030E04FE753E4E8
S1130270C501B40143D218164CF46D817E818F817F
S113028098855ED1CB010197F1F70AC0C501B4018D
S113029057D1462E02C044244394842D8A95F1F705
S11302A018BA20E030E040E85FE3C701B601DCD0D3
S11302B0882314F120E03FEF4FE757E4C701B6016C
S11302C01DD21816ACF420E030E040E251E4698518
S11302D07A858B859C8516D233D106C080E991E05E
S11302E00197F1F76150710961157105B9F709C0FA
S11302F0C701B60125D102C061E070E0CB010197CE
S1130300F1F720E030E040E85FE3C501B401ACD090
S113031088230CF462C020E03FEF4FE757E46D817F
S11303207E818F819885EAD118160CF03FC020E0B9
S113033030E04AE754E469817A818B819C8198D0CA
S11303404B015C0120E030E04AE755E4DBD16B016E
S11303507C0120E030E040E85FE386D0882304F1AC
S113036020E03FEF4FE757E4C701B601C7D11816A5
S11303709CF420E030E040E251E4C501B401C2D174
S1130380DFD006C080E991E00197F1F7615071096F
S113039061157105B9F723C0C701B601D1D002C0F8
S11303A061E070E0CB010197F1F719C020E030E083
S11303B04FE753E4C501B401A1D118164CF46D8183
S11303C07E818F819885BCD0CB010197F1F70AC05B
S11303D0C501B401B5D0562E02C055245394852DC1
S11303E08A95F1F78D899E8901969E8B8D8B8D89D7
S11303F09E89861597050CF479CE66960FB6F89407
S1130400DEBF0FBECDBFDF91CF911F910F91FF9043
S1130410EF90DF90CF90BF90AF909F908F907F90A0
S11304206F905F904F903F902F90089580E187BB2D
S1130430C0E0D0E00BC06CE070E080EE91E02FDE15
S113044068E070E080E491E02ADE2196C431D105B1
S113045094F380E29EE405C0E0E9F1E03197F1F71E
S113046001970097C9F7E4CFD4D008F481E0089548
S11304700CD00AC102D140F0F9D030F021F45F3F32
S113048019F0EBC0511134C1EEC00FD198F3992388
S1130490C9F35523B1F3951B550BBB27AA27621744
S11304A07307840738F09F5F5F4F220F331F441F89
S11304B0AA1FA9F333D00E2E3AF0E0E830D09150C1
S11304C05040E695001CCAF729D0FE2F27D0660FAE
S11304D0771F881FBB1F261737074807AB07B0E8ED
S11304E009F0BB0B802DBF01FF2793585F4F2AF003
S11304F09E3F510568F0B1C0FBC05F3FECF3983EEE
S1130500DCF3869577956795B795F7959F5FC9F75F
S1130510880F911D9695879597F90895E1E0660FE8
S1130520771F881FBB1F621773078407BA0720F061
S1130530621B730B840BBA0BEE1F88F7E0950895CA
S1130540BCD088F09F5790F0B92F9927B751A0F0ED
S1130550D1F0660F771F881F991F1AF0BA95C9F753
S113056012C0B13081F0C3D0B1E00895C0C0672F8C
S1130570782F8827B85F39F0B93FCCF38695779503
S11305806795B395D9F73EF49095809570956195EC
S11305907F4F8F4F9F4F0895E89409C097FB3EF417
S11305A090958095709561957F4F8F4F9F4F9923BC
S11305B0A9F0F92F96E9BB279395F695879577953A
S11305C06795B795F111F8CFFAF4BB0F11F460FFFA
S11305D01BC06F5F7F4F8F4F9F4F16C0882311F052
S11305E096E911C0772321F09EE8872F762F05C066
S11305F0662371F096E8862F70E060E02AF09A9501
S1130600660F771F881FDAF7880F9695879597F9F5
S11306100895990F0008550FAA0BE0E8FEEF16168F
S11306201706E807F907C0F012161306E407F507E2
S113063098F0621B730B840B950B39F40A2661F056
S1130640232B242B252B21F408950A2609F4A140F9
S1130650A6958FEF811D811D089597F99F6780E806
S113066070E060E008959FEF80EC089500240A9400
S11306701616170618060906089500240A94121679
S11306801306140605060895092E0394000C11F4AC
S1130690882352F0BB0F40F4BF2B11F460FF04C059
S11306A06F5F7F4F8F4F9F4F089557FD9058440FB2
S11306B0551F59F05F3F71F04795880F97FB991FBD
S11306C061F09F3F79F0879508951216130614067A
S11306D0551FF2CF4695F1DF08C016161706180607
S11306E0991FF1CF86957105610508940895E894E2
S11306F0BB2766277727CB0197F908958ADF08F48B
S11307008FEF08950BD0C0CFB1DF28F0B6DF18F01B
S1130710952309F0A2CFA7CF1124EACFC6DFA0F317
S1130720959FD1F3950F50E0551F629FF001729F82
S1130730BB27F00DB11D639FAA27F00DB11DAA1FA1
S1130740649F6627B00DA11D661F829F2227B00DEE
S1130750A11D621F739FB00DA11D621F839FA00D79
S1130760611D221F749F3327A00D611D231F849FC9
S1130770600D211D822F762F6A2F11249F57504020
S11307808AF0E1F088234AF0EE0FFF1FBB1F661FBB
S1130790771F881F91505040A9F79E3F510570F074
S11307A05CCFA6CF5F3FECF3983EDCF3869577955C
S11307B06795B795F795E7959F5FC1F7FE2B880F6F
S11307C0911D9695879597F9089597FB072E16F432
S11307D0009406D077FD08D00BD007FC05D03EF47A
S11307E0909581959F4F0895709561957F4F0895D9
S11307F0AA1BBB1B51E107C0AA1FBB1FA617B70743
S113080010F0A61BB70B881F991F5A95A9F780955E
S10F08109095BC01CD010895F894FFCF31
S9030000FC
