:1000000045C0000053C0000051C000004FC00000B8
:100010004DC000004BC0000049C0000047C00000B8
:1000200045C0000044C0000041C000003FC00000C7
:100030003DC000003BC0000039C0000037C00000D8
:1000400035C0000033C0000031C000002FC00000E8
:100050002DC000002BC0000029C0000027C00000F8
:1000600025C0000023C0000021C000001FC0000008
:100070001DC000001BC0000019C0000017C0000018
:1000800015C0000013C0000011C0000011241FBEE5
:10009000CFEFD0E1DEBFCDBF21E0A0E0B1E001C0F5
:1000A0001D92A230B207E1F749D068C0A9CF1F92D4
:1000B0000F920FB60F9211248F939F93809100019E
:1000C00090910101019690930101809300019F910D
:1000D0008F910F900FBE0F901F90189563BD14BCA9
:1000E0006BBB28EE33E0829FA001839F500D929F4F
:1000F000500D112420910001309101014217530746
:1001000081F71092010110920001089563BD14BCA3
:100110001BBA28EE33E0829FA001839F500D929F6F
:10012000500D112420910001309101014217530715
:1001300081F7109201011092000108958FEF8ABBA0
:1001400087BB8BE785BD80E887BF789464E670E065
:1001500085E090E0C3DF6DE470E085E090E0BEDF15
:100160006AE170E085E090E0B9DF66E970E085E083
:1001700090E0CCDF81E085BD1BBAE0CFF894FFCFE3
:00000001FF
