S01000007377325F315F72652E7372656332
S113000045C000004BC0000049C0000047C00000CC
S113001045C000004FC000005BC000003FC00000AE
S11300203DC000003BC0000039C0000037C00000E4
S113003035C0000033C0000031C000002FC00000F4
S11300402DC000002BC0000029C0000027C0000004
S113005025C0000023C0000021C000001FC0000014
S11300601DC000001BC0000019C0000017C0000024
S113007015C0000013C0000011C000000FC0000034
S11300800DC000000BC0000009C0000011241FBEF9
S1130090CFEFD0E1DEBFCDBF02D028C0B1CF8FEF0C
S11300A08ABB12B88FB780688FBF80E389BF1ABE3E
S11300B01BBAFECF1F920F920FB60F9211248F938B
S11300C080E88BBB8F910F900FBE0F901F901895F7
S11300D01F920F920FB60F9211248F9381E08BBB66
S11300E08F910F900FBE0F901F901895F894FFCF2B
S9030000FC
