:1000000045C0000060C000005EC000005CC0000091
:100010005AC0000058C0000056C0000054C0000084
:1000200052C0000050C000004EC000004CC0000094
:100030004AC0000048C0000046C0000044C00000A4
:1000400043C0000040C000003EC000003CC00000B3
:100050003AC0000038C0000036C0000034C00000C4
:1000600032C0000030C000002EC000002CC00000D4
:100070002AC0000028C0000026C0000024C00000E4
:1000800022C0000020C000001EC0000011241FBEBE
:10009000CFEFD0E1DEBFCDBF11E0A0E0B1E0E6E000
:1000A000F2E000E00BBF02C007900D92A636B10748
:1000B000D9F721E0A6E6B1E001C01D92A836B2074B
:1000C000E1F754D09EC09CCF1F920F920FB60F92B3
:1000D00011248F939F938091000190910101892BAE
:1000E00011F418BA19C080916601909167010197C7
:1000F00031F418BA109267011092660108C080E1CD
:1001000088BB81E090E090936701809366018091C5
:1001100000019091010182BF9F918F910F900FBEBE
:100120000F901F901895909301018093000180E03B
:1001300090E007C0E9EFF0E03197F1F700C0000070
:10014000019686179707B4F31092010110920001EF
:1001500080E090E007C0E9EFF0E03197F1F700C0F0
:100160000000019682339105B4F30895CF93DF9395
:10017000CDB7DEB7C456D1090FB6F894DEBF0FBEB7
:10018000CDBF80E187BB83E083BF81E087BF81E192
:1001900082BF789482E3E2E0F1E0DE011196019003
:1001A0000D928A95E1F782E3E4E3F1E0DE01D39674
:1001B00001900D928A95E1F700E010E010C0F8017F
:1001C000EE0FFF1F81E090E08C0F9D1FE80FF91FDD
:1001D00062A973A980819181A6DF0F5F1F4F09314A
:1001E00011056CF380E090E007C0E9EFF0E0319793
:1001F000F1F700C000000196883EF3E09F07ACF3E2
:06020000DBCFF894FFCFF4
:1002060011006100420042006100420011002B0013
:1002160042002B0011004200610089006100890044
:10022600610089006100420061002B004D00420020
:100236002B001100E02E7017701770177017E02E44
:10024600E02E7017701770177017E02E7017701762
:100256007017701770177017E02EE02E7017701752
:0602660070177017E02E76
:00000001FF
