:1000000045C0000060C000005EC000005CC0000091
:100010005AC0000064C0000082C0000054C000004C
:1000200052C0000050C000004EC000004CC0000094
:100030004AC0000048C0000046C0000044C00000A4
:1000400042C0000040C000003EC000003CC00000B4
:100050003AC0000038C0000036C0000034C00000C4
:1000600032C0000030C000002EC000002CC00000D4
:100070002AC0000028C0000026C0000024C00000E4
:1000800022C0000020C000001EC0000011241FBEBE
:10009000CFEFD0E1DEBFCDBF11E0A0E0B1E0EEE3F5
:1000A000F1E000E00BBF02C007900D92A030B10755
:1000B000D9F721E0A0E0B1E001C01D92A230B20763
:1000C000E1F702D03AC09CCF8FEF8ABB12B88FB74E
:1000D00080688FBF80E389BF1ABE1BBAFECF1F9214
:1000E0000F920FB60F9211248F939F93809100016E
:1000F00090910101019690930101809300018FE39B
:100100009CE90197F1F700C0000088B7806188BFC3
:100110009F918F910F900FBE0F901F9018951F9277
:100120000F920FB60F92112410920101109200014C
:0E0130000F900FBE0F901F901895F894FFCF00
:00000001FF
