S00E0000636473315F322E737265631A
S113000045C000004BC0000049C0000047C00000CC
S113001045C0000043C0000041C000003FC00000D4
S11300203DC000003BC0000039C0000037C00000E4
S113003035C0000033C0000031C000002FC00000F4
S11300402DC000002BC0000029C0000027C0000004
S113005025C0000023C0000021C000001FC0000014
S11300601DC000001BC0000019C0000017C0000024
S113007015C0000013C0000011C000000FC0000034
S11300800DC000000BC0000009C0000011241FBEF9
S1130090CFEFD0E1DEBFCDBF28D02DC0B1CF17B890
S11300A087E886B9089586B1806486B9349BFECF0B
S11300B024B185B190E0982F8827822B0895813B45
S11300C024E0920710F01BBA0895883623E09207C3
S11300D018F081E88BBB08958935924018F085E5C6
S11300E08BBB08958FEF8BBB08958FEF8ABBD7DF4F
S10D00F0DADFE5DFFDCFF894FFCF5F
S9030000FC
