:1000000045C0000058C0000056C0000054C00000A9
:1000100052C0000050C000004EC000004CC00000A4
:100020004AC0000048C0000046C0000044C00000B4
:1000300042C0000040C000003EC000003CC00000C4
:100040003AC0000038C0000036C0000034C00000D4
:1000500032C0000030C000002EC000002CC00000E4
:100060002AC0000028C0000026C0000024C00000F4
:1000700022C0000020C000001EC000001CC0000004
:100080001AC0000018C0000016C0000011241FBED6
:10009000CFEFD0E1DEBFCDBF11E0A0E0B1E0E8E0FE
:1000A000F3E000E00BBF02C007900D92A430B1074F
:1000B000D9F73CD027C1A4CFCF93DF9300D000D095
:1000C00000D0CDB7DEB71A82198222C01C821B82F3
:1000D00014C01E821D8206C02D813E812F5F3F4FBE
:1000E0003E832D832D813E81283E3340ACF32B810E
:1000F0003C812F5F3F4F3C832B832B813C81283EEB
:1001000033403CF329813A812F5F3F4F3A83298363
:1001100029813A8128173907CCF226960FB6F89430
:10012000DEBF0FBECDBFDF91CF9108958FEF8ABBA9
:1001300084E690E07FD07BD0907899231CF40197DF
:100140009F6F01968BBB73D063E070E002D0B4DF89
:10015000F2CF97FB072E16F4009406D077FD08D057
:100160000BD007FC05D03EF4909581959F4F0895E4
:10017000709561957F4F0895AA1BBB1B51E107C085
:10018000AA1FBB1FA617B70710F0A61BB70B881F27
:10019000991F5A95A9F780959095BC01CD010895B6
:1001A0008F929F92AF92BF92CF92DF92EF92FF9287
:1001B000CF93DF93EC01688179818A819B816115FE
:1001C00071058105910521F464E279ED8BE597E0F5
:1001D0002DE133EF41E050E038D049015A019B0155
:1001E000AC01A7EAB1E44DD06B017C01ACEEB4EFF9
:1001F000A501940152D0DC01CB018C0D9D1DAE1DDB
:10020000BF1DB7FF03C00197A109B0488883998338
:10021000AA83BB839F77DF91CF91FF90EF90DF9010
:10022000CF90BF90AF909F908F900895B9CF80E00E
:1002300091E0B6CFA0E0B0E080930001909301017F
:10024000A0930201B09303010895052E97FB16F4C5
:1002500000940FD057FD05D024D007FC02D046F4FF
:1002600008C050954095309521953F4F4F4F5F4FB7
:10027000089590958095709561957F4F8F4F9F4F12
:10028000089531D0A59F900DB49F900DA49F800D2F
:10029000911D11240895B7FFF4CFF3DF821B930B58
:1002A0000895A1E21A2EAA1BBB1BFD010DC0AA1FB7
:1002B000BB1FEE1FFF1FA217B307E407F50720F0CF
:1002C000A21BB30BE40BF50B661F771F881F991F4A
:1002D0001A9469F760957095809590959B01AC0193
:1002E000BD01CF010895A29FB001B39FC001A39F9C
:1002F000700D811D1124911DB29F700D811D11245F
:08030000911D0895F894FFCF50
:0403080001000000F0
:00000001FF
