S00F00006777616A655F412E7372656367
S113000045C000004BC0000049C0000047C00000CC
S113001045C0000043C0000041C000003FC00000D4
S11300203DC000003BC0000039C0000037C00000E4
S113003035C0000033C0000031C000002FC00000F4
S11300402DC000002BC0000029C0000027C0000004
S113005025C0000023C0000021C000001FC0000014
S11300601DC000001BC0000019C0000017C0000024
S113007015C0000013C0000011C000000FC0000034
S11300800DC000000BC0000009C0000011241FBEF9
S1130090CFEFD0E1DEBFCDBF48D05DC0B1CFCF93AD
S11300A0DF9300D000D000D0CDB7DEB71A8219821A
S11300B022C01C821B8214C01E821D8206C02D8198
S11300C03E812F5F3F4F3E832D832D813E81283E0D
S11300D03340ACF32B813C812F5F3F4F3C832B8318
S11300E02B813C81283E33403CF329813A812F5FA8
S11300F03F4F3A8329839C01220F331F220F331F62
S1130100220F331FAC01440F551F240F351F4981A3
S11301105A81421753076CF226960FB6F894DEBF45
S11301200FBECDBFDF91CF9108958FEF8ABBD0E092
S1130130C1E003C0D1E001C0D0E0CBBB80E090E0DF
S1130140AEDFD11104C0CC0FC038B9F7F3CFC695D8
S10D0150C13099F7F1CFF894FFCF06
S9030000FC
