:1000000045C0000060C000005EC000005CC0000091
:100010005AC0000059C0000070C0000054C0000069
:1000200052C0000093C000004EC000004CC0000051
:100030004AC0000048C0000046C0000044C00000A4
:1000400042C0000040C000003EC000003CC00000B4
:100050003AC0000038C0000036C0000034C00000C4
:1000600032C0000030C000002EC000002CC00000D4
:100070002AC0000028C0000026C0000024C00000E4
:1000800022C0000020C000001EC0000011241FBEBE
:10009000CFEFD0E1DEBFCDBF11E0A0E0B1E0E0E303
:1000A000F5E000E00BBF02C007900D92A231B1074E
:1000B000D9F721E0A2E1B1E001C01D92A032B20760
:1000C000E1F747D133C29CCF1F920F920FB60F9228
:1000D00011248F9380911E01811109C080911F010D
:1000E000833628F480911F018F5F80931F018F91C9
:1000F0000F900FBE0F901F9018951F920F920FB682
:100100000F9211248F9380911F018823C9F081E001
:1001100080931E0180911F01809317011092160198
:1001200010921A0110921B0110921C0110921D01D5
:1001300010921901109218018BE785BD82E483BDEE
:100140008F910F900FBE0F901F9018951F920F92D6
:100150000FB60F9211240BB60F922F933F934F932C
:100160005F936F937F938F939F93AF93BF93EF931F
:10017000FF93CF93DF9300D01F92CDB7DEB780916E
:100180001A0190911B01A0911C01B0911D010196D3
:10019000A11DB11D80931A0190931B01A0931C0116
:1001A000B0931D01809118019091190101969093CF
:1001B0001901809318018091180190911901883ECE
:1001C0009340D0F0109219011092180184E68983AF
:1001D00082E48A8384E18B8380911E01882361F00D
:1001E0003AD163E070E0C9D0E1E0F0E0EC0FFD1F30
:1001F000E80FF91F808183BD80911A0190911B0146
:10020000A0911C01B0911D01883E9340A105B1054C
:1002100018F110921A0110921B0110921C011092F9
:100220001D0180911601811112C080911701882350
:1002300049F0809117018150809317018BE38093DF
:1002400016010AC010921E0113BC15BC05C0809196
:1002500016018150809316010F900F900F90DF913F
:10026000CF91FF91EF91BF91AF919F918F917F912E
:100270006F915F914F913F912F910F900BBE0F9017
:100280000FBE0F901F9018959DEC899F212D112472
:10029000269526952695E2E1F1E02383220F322F61
:1002A000330F330F230F382F321B3283699F812D79
:1002B00011248695869586958183880F982F990FAE
:1002C000990F890F962F981B9083089580E090E0F6
:1002D0001CC0FC01EE5EFE4FE081F0E0E85FFE4FE7
:1002E000208125BB8230910519F425B3206825BBF8
:1002F000FC01EC5FFE4F208120936500E9EFF0E008
:100300003197F1F700C000000196843091050CF39D
:10031000089589B7806389BF8AB783608ABF8AB727
:100320008C608ABF089587B3806887BB87B3806479
:1003300087BB88B38F7B88BB13BC14BC15BC87B745
:10034000806887BF08958FEF84BB8FE0809364003F
:100350000895DFDFE8DFF7DF789480911E018111D7
:1003600005C080911F0160E08FDF05C0609116011C
:100370008091170189DFAADFF0CF97FB072E16F4D3
:10038000009406D077FD08D00BD007FC05D03EF4D2
:10039000909581959F4F0895709561957F4F089531
:1003A000AA1BBB1B51E107C0AA1FBB1FA617B7079B
:1003B00010F0A61BB70B881F991F5A95A9F78095B7
:1003C0009095BC01CD0108958F929F92AF92BF92FC
:1003D000CF92DF92EF92FF92CF93DF93EC0168818F
:1003E00079818A819B81611571058105910521F4CF
:1003F00064E279ED8BE597E02DE133EF41E050E0E9
:1004000038D049015A019B01AC01A7EAB1E44DD0B3
:100410006B017C01ACEEB4EFA501940152D0DC017C
:10042000CB018C0D9D1DAE1DBF1DB7FF03C00197F5
:10043000A109B04888839983AA83BB839F77DF9102
:10044000CF91FF90EF90DF90CF90BF90AF909F90B3
:100450008F900895B9CF80E091E0B6CFA0E0B0E0F2
:100460008093000190930101A0930201B0930301D6
:100470000895052E97FB16F400940FD057FD05D074
:1004800024D007FC02D046F408C050954095309522
:1004900021953F4F4F4F5F4F0895909580957095F0
:1004A00061957F4F8F4F9F4F089531D0A59F900D3D
:1004B000B49F900DA49F800D911D11240895B7FF46
:1004C000F4CFF3DF821B930B0895A1E21A2EAA1B2F
:1004D000BB1BFD010DC0AA1FBB1FEE1FFF1FA217F4
:1004E000B307E407F50720F0A21BB30BE40BF50BF1
:1004F000661F771F881F991F1A9469F7609570957A
:10050000809590959B01AC01BD01CF010895A29FFC
:10051000B001B39FC001A39F700D811D1124911DD7
:10052000B29F700D811D1124911D0895F894FFCF85
:1005300001000000010204083F065B4F666D7C0766
:020540007F67D3
:00000001FF
