S010000073775F335F312E632E7372656377
S113000045C0000060C000005EC000005CC000008D
S11300105AC0000085C00000AAC0000054C00000FF
S113002052C0000050C000004EC000004CC0000090
S11300304AC0000048C0000046C0000045C000009F
S113004042C0000040C000003EC000003CC00000B0
S11300503AC0000038C0000036C0000034C00000C0
S113006032C0000030C000002EC000002CC00000D0
S11300702AC0000028C0000026C0000024C00000E0
S113008022C0000020C000001EC0000011241FBEBA
S1130090CFEFD0E1DEBFCDBF11E0A0E0B1E0E0E101
S11300A0F3E000E00BBF02C007900D92AE30B10741
S11300B0D9F721E0AEE0B1E001C01D92A631B2074C
S11300C0E1F7D4D023C19CCF1F920F920FB60F92A9
S11300D011248F939F9380911001909111010197A6
S11300E0C1F480910E0190910F01019690930F013C
S11300F080930E010A976CF010920F0110920E017A
S113010080911401909115010196909315018093AB
S113011014019F918F910F900FBE0F901F9018950F
S11301201F920F920FB60F9211248F939F93809179
S1130130100190911101892B39F481E090E09093A2
S11301401101809310010CC0109211011092100142
S113015080911401909115019093130180931201E1
S11301609F918F910F900FBE0F901F9018951F9223
S11301700F920FB60F9211241092150110921401D0
S11301801092130110921201109211011092100199
S11301900F900FBE0F901F9018950F931F93CF933E
S11301A0DF93CDB7DEB728970FB6F894DEBF0FBE46
S11301B0CDBF9C0164E670E082D08B01FC01C901D3
S11301C068EE73E07CD07A8369832AE030E0C8016A
S11301D0B90175D09C838B83CF01B90170D07E8324
S11301E06D8398878F8380E090E032C0FC01E050FB
S11301F0FF4F2081209365008130910591F4FC012B
S1130200EE0FFF1F21E030E02C0F3D1FE20FF31F24
S11302100190F081E02DEC5FFE4F2081206825BB2A
S113022010C0FC01EE0FFF1F21E030E02C0F3D1F3A
S1130230E20FF31F0190F081E02DEC5FFE4F20816F
S113024025BBE3EFF1E03197F1F700C00000019620
S1130250843091055CF228960FB6F894DEBF0FBE89
S1130260CDBFDF91CF911F910F9108958FEF8ABB7E
S113027084BB8FE08093640082B18F7C82B98AE072
S11302808ABF80E389BF8FB780688FBF8CE083BF4C
S113029089EF81BF87B7826087BF809110019091F9
S11302A01101019731F4809114019091150175DFCA
S11302B0F4CF80911201909113016FDFEECF97FB81
S11302C0072E16F4009406D077FD08D00BD007FC57
S11302D005D03EF4909581959F4F08957095619552
S11302E07F4F0895AA1BBB1B51E107C0AA1FBB1F68
S11302F0A617B70710F0A61BB70B881F991F5A95AE
S1130300A9F780959095BC01CD010895F894FFCF8D
S1110310010204083F065B4F666D7D077F6F98
S9030000FC
