S01800004763634170706C69636174696F6E31312E7372656329
S113000045C0000060C000005EC000005CC000008D
S11300105AC0000058C0000056C0000054C0000080
S113002052C0000050C000004EC000004CC0000090
S11300304AC0000048C0000046C0000044C00000A0
S113004043C0000040C000003EC000003CC00000AF
S11300503AC0000038C0000036C0000034C00000C0
S113006032C0000030C000002EC000002CC00000D0
S11300702AC0000028C0000026C0000024C00000E0
S113008022C0000020C000001EC0000011241FBEBA
S1130090CFEFD0E1DEBFCDBF11E0A0E0B1E0E6E0FC
S11300A0F2E000E00BBF02C007900D92A236B10748
S11300B0D9F721E0A2E6B1E001C01D92A436B2074F
S11300C0E1F754D09EC09CCF1F920F920FB60F92AF
S11300D011248F939F938091000190910101892BAA
S11300E011F418BA19C080916201909163010197CB
S11300F031F418BA109263011092620108C080E1D1
S113010088BB81E090E090936301809362018091C9
S113011000019091010182BF9F918F910F900FBEBA
S11301200F901F901895909301018093000180E037
S113013090E007C0E9EFF0E03197F1F700C000006C
S1130140019686179707B4F31092010110920001EB
S113015080E090E007C0E9EFF0E03197F1F700C0EC
S11301600000019682339105B4F30895CF93DF9391
S1130170CDB7DEB7C056D1090FB6F894DEBF0FBEB7
S1130180CDBF80E187BB83E083BF81E087BF81E18E
S113019082BF789480E3E2E0F1E0DE011196019001
S11301A00D928A95E1F780E3E2E3F1E0DE01D19676
S11301B001900D928A95E1F700E010E010C0F8017B
S11301C0EE0FFF1F81E090E08C0F9D1FE80FF91FD9
S11301D060A971A980819181A6DF0F5F1F4F08314B
S11301E011056CF380E090E007C0E9EFF0E031978F
S11301F0F1F700C000000196883EF3E09F07ACF3DE
S1090200DBCFF894FFCFF0
S11302061100610061007200720061006100420029
S113021661006100420042002B006100610072002F
S11302267200610061004200610042002B0042003E
S11302361100401F401F401F401F401F401F803EAB
S1130246401F401F401F401FC05D401F401F401FEE
S1130256401F401F401F803E401F401F401F401F3D
S1050266C05D75
S9030000FC
